:100000000C94B6000C94D3000C94D3000C94D30041
:100010000C94D3000C94D3000C94D3000C94D30014
:100020000C94D3000C94D3000C94D3000C94D30004
:100030000C94D3000C94D3000C94D3000C948B1527
:100040000C94D3000C94D3000C94D3000C94D300E4
:100050000C9429160C94D3000C94D3000C94D30068
:100060000C94D3000C94D3000C94D3000C94D300C4
:100070000C94690B0C94D3000C94D3009A069D0643
:10008000A006A306A906AC06B306B606B906BC06CA
:10009000BF06C206C506C806CB06CE06D406DB06DA
:1000A000E206E506EA06F006F506FA060C0713076F
:1000B0001C0724072C0733073C0744074E07530748
:1000C0005907600768076F07770780078A07960751
:1000D000A407AC07B307BB07C207CB07E107E807D4
:1000E000F107F9070108080811081908230828086A
:1000F0002E0835083D0844084C0855085F086B0871
:1001000079088108880890089708A008960C9C0C2C
:10011000A20CA80CAE0CB40CBA0CC00CC60CCC0CC7
:10012000D20CDB0CE10CE70CED0CF30CF90CFF0C22
:10013000050D0B0D110D170D1D0D230D3A0D460D5F
:10014000520D5E0D6A0D760D820D8E0D9A0DA60D67
:10015000B20DBE0DCA0DD60DE20DEE0DFA0D060E56
:10016000120E1E0E2A0E360E420E4E0E11241FBE09
:10017000CFEFD0E1DEBFCDBF15E0A0E0B1E0E2E01F
:10018000F2E502C005900D92A430B107D9F71AE04C
:10019000A4E0B5E001C01D92A33FB107E1F70E94C2
:1001A000D5000C94FF280C9400000E94DA0080E037
:1001B00090E008950E94A11A0E94CA110E94CD0FDA
:1001C00084E095E00E94541AF9CFCF93DF93EC01BD
:1001D0008F850E94F9008850823010F080E006C0C0
:1001E0007A896B89898998890E94380CDF91CF912F
:1001F00008950E94AB058F7708951F93182F0E94D2
:10020000AB05813860F4812F0E94AB058F77803178
:1002100031F0833121F0893011F080E001C081E0BC
:100220001F910895EF92FF920F931F93182FE62EC0
:10023000042FF22E0E94CD03812F602F0E94D3073E
:10024000812F6F2D0E94FE06812F6E2D0E944E067B
:100250001F910F91FF90EF9008950F931F93182F08
:10026000062F0E94CD03002309F479C0802F90E06F
:100270008F7790708A309105D4F4883091054CF5D1
:100280008330910509F465C08430910524F4019709
:1002900009F067C01AC08630910509F44DC0873057
:1002A00091050CF053C0049709F05BC03BC084314A
:1002B000910544F48E3091050CF053C00D970CF06D
:1002C00050C01AC04697E4F14CC0812F0E94CD0364
:1002D00046C01051123008F049C080E168E041E0AA
:1002E00021E00E94120181E169E040E021E00E94EA
:1002F00012010E94580C33C0E12FF0E0E552F54F97
:10030000808184FF33C080E06CE040E021E00E9407
:10031000120181E06BE040E021E00E94120182E0E6
:100320006AE021C0812F602F40E020E00E9412018E
:10033000812F0E940A0407C0812F0E947E0903C0FA
:10034000812F0E946305882391F009C0812F0E94AC
:10035000500B812F602F41E020E00E94120181E0CC
:1003600006C0812F602F40E021E0F7CF80E01F9191
:100370000F9108951F93CF93DF93EC0110E0812F2D
:100380006F850E942D01882329F01F5F2196183167
:10039000B1F781E0DF91CF911F910895FC0197851E
:1003A00060898185873018F0818981116068892F83
:1003B0000E942D0108951F93CF93DF93C0E0D0E0FA
:1003C0001C2F8C2F60E00E94D3078C2F60E00E94CE
:1003D000FE06CE010E943206682F8C2F0E94430930
:1003E000CE010E943206682F8C2F20E030E040E0E2
:1003F00050E00E94410A8C2F0E94AB0582508D3F35
:1004000020F08C2F62E00E944E06812F0E94AB05E7
:10041000682F812F0E942D012196C831D10581F6C8
:10042000DF91CF911F910895982F833069F0873025
:1004300059F0863049F0823039F0843129F080E07B
:10044000953119F481E0089581E00895FC01608BF5
:100450000895FC01708B618B0895FC01708B618B9A
:10046000528B438B0895FC0172896389818990893D
:100470000895CF92DF92EF92FF920F931F93D82EA1
:10048000C42E780189010E94F9008630C9F08730B6
:1004900020F48250823030F407C0873051F084510C
:1004A000823098F080E016C08D2D6C2D0E94FE06E3
:1004B00010C08D2D6C2DA80197010E94410A09C022
:1004C0008D2D6C2D0E94430904C08D2D6C2D0E9432
:1004D000F40481E01F910F91FF90EF90DF90CF9097
:1004E00008957F928F929F92AF92BF92CF92DF92A8
:1004F000EF92FF920F931F93CF93DF93FC01C2887B
:10050000D188E088F784EC01BB247B888C889D88A7
:10051000AE888B2D0E94F900833051F0873041F076
:10052000863031F0823021F0843111F0853169F468
:10053000C701B6010E94DB258B019C018B2D4A2D42
:10054000592D682D772D0E943902B394249688E1A5
:10055000B816D9F681E0DF91CF911F910F91FF90EE
:10056000EF90DF90CF90BF90AF909F908F907F9053
:100570000895BF92CF92DF92EF92FF920F931F9355
:10058000CF93DF93EC01BF848B2D0E94F900833061
:1005900051F0873041F0863031F0823021F08431E3
:1005A00011F08531C1F5C8888985883019F47989B9
:1005B0006A8902C060E070E0DD24EE24FF2480E060
:1005C00090E00E94DB258B019C018B2DB701A601D9
:1005D0000E943902CE0160E840E00E943A170EC046
:1005E0008850823068F40985055010E004C08F857A
:1005F0000E94F5151F5F21961017C8F381E001C016
:1006000080E0DF91CF911F910F91FF90EF90DF90ED
:10061000CF90BF900895853019F7F2CF1F93182F10
:100620000E94F9008730E1F0883050F4843031F1D5
:10063000853018F4823068F00FC0863051F416C04F
:10064000833151F0843118F4803119F405C08631BA
:1006500088F021E030E016C0812F0E948B0603C095
:10066000812F0E94EB09282F30E00CC0812F0E94BF
:100670007009F9CF812F0E94D404F5CF812F0E94F9
:10068000A9049C01C9011F910895DF92EF92FF9286
:100690000F931F93CF93DF938C01FC01E7848E2D82
:1006A0000E94F900F82E8E2D0E940E03D82E8E2D5A
:1006B0000E94FD00882311F00E94830C80E2F80163
:1006C00087838F2D8451823090F0F3E0FF1679F00C
:1006D00086E0F81661F0E7E0FE1649F0F2E0FF165A
:1006E00031F083E1F81619F0E0E1FE1621F4F8018B
:1006F000D08A86E034C0F4E0FF1641F48E2D0E94CB
:10070000A904F801908B818B87E029C0F8EFFF0ED8
:1007100081E08F1510F480E024C085E0F801818726
:100720000E945A0BEC010097D9F0C8010F96BE0148
:100730000E945F0B2E96F801EC0FFD1F2E9720E014
:1007400030E005C0808181832F5F3F4F31972C17A8
:100750003D07C0F381E1F801878781858C0F818790
:1007600081E0DF91CF911F910F91FF90EF90DF908B
:1007700008950F931F93182F062F0E94F90086509B
:10078000823010F080E006C0812F90E0602F0E9440
:100790002B0681E01F910F9108950F931F93082F4F
:1007A0000E94F900182F802F0E94A808802F0E9415
:1007B0006904802F0E943305812F8A50833080F492
:1007C00080E062E00E944E0681E062E00E944E06F8
:1007D00082E062E00E944E0683E062E00E944E06E4
:1007E0001850123058F4802F0E943B0C80E162E0D8
:1007F0000E944E0681E162E00E944E06802F60E07A
:100800000E94D3071F910F9108950E94BB1F0E9461
:10081000DB010895982FE82FF0E0E552F54F808135
:1008200080FD02C080E0089580917C008F738093EA
:100830007C0080917C008F7D80937C0080917A0089
:10084000806880937A0080917A00877F80937A0015
:1008500080917A00876080937A0010927B009B30B1
:10086000F1F09C3038F4993091F09A30A0F498303F
:1008700039F509C09D30D9F09D30A8F09E30D9F0EF
:100880009F30F1F41FC080917E00816017C080917D
:100890007E00826013C080917E0084600FC08091D2
:1008A0007E0088600BC080917E00806107C08091CF
:1008B0007E00806203C080917E00806480937E0011
:1008C00081E0089580917E00806880937E0081E0C1
:1008D0000895982FE82FF0E0E552F54F808180FFD2
:1008E00037C09B30F1F09C3038F4993091F09A3059
:1008F000A0F4983069F509C09D30D9F09D30A8F07A
:100900009E30D9F09F3021F51EC080917E008E7FF1
:1009100017C080917E008D7F13C080917E008B7FF9
:100920000FC080917E00877F0BC080917E008F7EFC
:1009300007C080917E008F7D03C080917E008F7BF9
:1009400080937E00089580917E008F7780937E0053
:100950000895982F9850983018F020E030E014C097
:100960009F7180917C00807E892B80937C00809198
:100970007A00806480937A0080917A0086FDFCCFB3
:100980002091780030917900C9010895883030F0C5
:1009900080932909845080932A09089580932A0915
:1009A0008C5F809329090895982FE82FF0E0E55295
:1009B000F54F808187FD02C080E00895983030F0C7
:1009C00090932909945090932A0905C090932A097D
:1009D0009C5F90932909E0912A09F0E0EE0FFF1F38
:1009E000E555F54F80810895CF93DF93982FE82F39
:1009F000F0E0E552F54F808187FF32C0983030F04B
:100A000090932909945090932A0905C090932A093C
:100A10009C5F90932909C62FD0E0C058D040E09148
:100A20002A09F0E0EE0FFF1FE555F54F60831C1615
:100A30001D064CF48091290960E00E94FE06CE015B
:100A4000880F682F09C08091290961E00E94FE0685
:100A5000CE018195682F660F80912A090E94430973
:100A6000DF91CF910895982FE82FF0E0E552F54FF0
:100A7000808187FF27C0983030F0909329099450E7
:100A800090932A0905C090932A099C5F90932909A5
:100A900080912A090E94F9008431A1F480912909EA
:100AA0000E94F900853171F480912A090E94A808FA
:100AB00080912A0962E00E944E068091290962E035
:100AC0000E944E060895982FE82FF0E0E552F54F6A
:100AD000808187FD02C080E00895983030F09093C7
:100AE0002909945090932A0905C090932A099C5F84
:100AF0009093290980912A0964E141E020E00E9455
:100B000012018091290965E141E020E00E94120173
:100B100080912A0960E80E94F40481E00895F9991F
:100B2000FECF1FBA12BC11BCF89A80B5853291F481
:100B300021E030E0F999FECF1FBA32BD21BDF89A0D
:100B400080B5F901E553FD4F80832F5F3F4F27307C
:100B5000310581F70895F999FECF1FBA90E0079605
:100B600092BD81BDF89A80B50895F999FECF1FBA5C
:100B700087E390E092BD81BDF89A30B5F999FECF38
:100B80001FBA88E390E092BD81BDF89A20B5F9992B
:100B9000FECF1FBA89E390E092BD81BDF89A70B58F
:100BA000F999FECF1FBA8AE390E092BD81BDF89A11
:100BB00060B5C9010895CB9624E08030920710F00B
:100BC00080E00895F999FECF1FBA92BD81BDF89AD1
:100BD00080B50895F999FECF1FBA92BD81BDF89AEC
:100BE00080B508959C01F999FECF1FBA32BD21BD91
:100BF000F89A80B5861741F0F999FECF1FBA32BD39
:100C000021BD60BDFA9AF99A0895CB9624E0803010
:100C1000920710F40E94F2050895FF920F931F931C
:100C2000F62E072F182F692F87E390E00E94F20518
:100C300088E390E0612F0E94F20589E390E0602F45
:100C40000E94F2058AE390E06F2D0E94F2051F9149
:100C50000F91FF9008956F3F09F46EEF4F960E9439
:100C6000F2050895CF93DF939C01EC016F96F999FB
:100C7000FECF1FBAD2BDC1BDF89A80B58F3F21F417
:100C8000C90160E80E942B06F999FECF1FBAD2BDB8
:100C9000C1BDF89A80B5DF91CF910895282F30E03B
:100CA000295F3F4FF999FECF1FBA32BD21BDF89A97
:100CB00080B5861719F0C9010E94F20508950F93B7
:100CC0001F93CF93DF939C01F999FECF1FBA12BCFB
:100CD00011BCF89A80B5853211F480E017C0890103
:100CE000C1E0D0E0F80161918F01FE01E553FD4FB5
:100CF0006083CE010E94F2052196C730D10591F79D
:100D000080E090E065E20E94F20581E0DF91CF9102
:100D10001F910F910895E82FF0E0E831F10540F4BC
:100D2000E25CFF4FEE0FFF1F0590F491E02D099458
:100D300080E008958091230033C0809123000EC08D
:100D40008091230002C0809129008295869587704A
:100D50004FC08091290024C08091290082958695FA
:100D60008695837045C08091230036C08091230012
:100D70002EC0809120003CC08091200038C080911E
:100D8000200030C08091200027C0809120001FC02B
:100D900080912000DACF80912000E0CF8091200068
:100DA000881F8827881F08958091C90083FD03C08C
:100DB0008091290011C08091C90083FD03C08091FA
:100DC000290010C080912600C0CF80912600829516
:100DD0008F700EC08091260086958695869508C0F6
:100DE000809126008695869503C080912600869581
:100DF000817008958091260081700895E82FF0E0B9
:100E0000E831F10508F0CEC0EA5AFF4FEE0FFF1FA0
:100E10000590F491E02D0994679566276795809178
:100E200025008F7737C061706295660F660F607C12
:100E3000809125008F7B2EC061706295660F607E69
:100E4000809125008F7D26C061706295660F607E5F
:100E500080912B008F7D74C0679566276795809180
:100E60002B008F776DC061706295660F660F607C96
:100E700080912B008F7B64C06170660F660F660FD8
:100E800080912500877F06C061706295607F8091A8
:100E900025008F7E862B80932500089561708091B8
:100EA00022008E7F33C06170660F809122008D7F9B
:100EB0002DC06170660F660F809122008B7F26C067
:100EC0006170660F660F660F80912200877F1EC0DB
:100ED00061706295607F809122008F7E17C0617083
:100EE0006295660F607E809122008F7D0FC06170D9
:100EF0006295660F660F607C809122008F7B06C032
:100F0000679566276795809122008F77862B80935F
:100F1000220008958091C90083FD44C06170660F6E
:100F2000660F660F80912B00877F0AC08091C900F1
:100F300083FD38C06170660F660F80912B008B7F38
:100F4000862B80932B00089561706295660F607EFA
:100F5000809128008F7D1BC061706295607F8091B9
:100F600028008F7E14C06170660F660F660F809137
:100F70002800877F0CC06170660F660F8091280083
:100F80008B7F05C06170660F809128008D7F862B56
:100F90008093280008956170809128008E7F862BB1
:100FA000809328000895E82FF0E0E831F10508F07B
:100FB000CEC0E259FF4FEE0FFF1F0590F491E02DD8
:100FC0000994679566276795809124008F7737C0CD
:100FD00061706295660F660F607C809124008F7B44
:100FE0002EC061706295660F607E809124008F7DB7
:100FF00026C061706295660F607E80912A008F7DA9
:1010000074C067956627679580912A008F776DC0B9
:1010100061706295660F660F607C80912A008F7BFD
:1010200064C06170660F660F660F80912400877F31
:1010300006C061706295607F809124008F7E862B50
:101040008093240008956170809121008E7F33C0C9
:101050006170660F809121008D7F2DC06170660FD9
:10106000660F809121008B7F26C06170660F660F2E
:10107000660F80912100877F1EC061706295607F3E
:10108000809121008F7E17C061706295660F607E2F
:10109000809121008F7D0FC061706295660F660F91
:1010A000607C809121008F7B06C0679566276795DD
:1010B000809121008F77862B809321000895809165
:1010C000C90083FD44C06170660F660F660F809192
:1010D0002A00877F0AC08091C90083FD38C06170F3
:1010E000660F660F80912A008B7F862B80932A00E3
:1010F000089561706295660F607E809127008F7DF4
:101100001BC061706295607F809127008F7E14C044
:101110006170660F660F660F80912700877F0CC095
:101120006170660F660F809127008B7F05C061702C
:10113000660F809127008D7F862B8093270008956E
:101140006170809127008E7F862B80932700089501
:101150008530D1F0863018F48430D9F40FC0863051
:1011600019F08730B1F404C0809144008F7303C03C
:10117000809144008F7C8093440008958091B0005A
:101180008F738093B00008958091B0008F7C80931E
:10119000B00008951F93182F0E94F900863059F06F
:1011A000812F0E94F900853131F0812F0E94F900D2
:1011B000843109F066C0153009F44DC0163020F4B2
:1011C000143009F05EC032C0163021F0173009F03B
:1011D00058C015C0809124008860809324008091BD
:1011E000440083608093440080914500887F816043
:1011F00080934500809144008F73806814C0809173
:101200002400806180932400809144008360809357
:10121000440080914500887F8160809345008091E3
:1012200044008F7C8062809344002BC080912A0010
:10123000806880932A008091B00083608093B00022
:101240008091B100887F81608093B1008091B0006F
:101250008F73806814C080912A00806480932A0074
:101260008091B00083608093B0008091B100887F4E
:1012700081608093B1008091B0008F7C8062809308
:10128000B0001F9108950F931F93182F062F0E94EF
:10129000F900863051F0812F0E94F900853129F044
:1012A000812F0E94F9008431C1F4812F0E94CA0865
:1012B000153089F0163018F4143079F409C016305E
:1012C00019F0173051F402C007BD07C008BD05C0B2
:1012D0000093B30002C00093B4001F910F910895D2
:1012E0001F93182F0E94F900863011F080E004C08F
:1012F000812F90E00E9432061F9108951F93182FAE
:10130000E82FF0E0E552F54F808182FD02C080E0D9
:1013100012C0812F66E041E020E00E941201812F7F
:101320000E94CA08812F90E00E943206682F812F08
:101330000E94430981E01F910895982F10920E0694
:1013400010920F06613049F48091240084608093EC
:10135000240080912500846016C08150823018F4EA
:1013600081E080930E06913011F0933021F480914A
:101370002400846003C0809124008B7F809324002C
:10138000809125008B7F80932500413059F4809116
:1013900024008260809324008091250082608093E5
:1013A00025000895913011F0933021F480912400AC
:1013B000826003C0809124008D7F809324008091FF
:1013C00025008D7F809325009150923018F481E0A4
:1013D00080930F060895E82FF0E0EE0FFF1FE5550C
:1013E000F54F80810895DF93CF9300D000D0CDB723
:1013F000DEB782E291E0A0E0B0E089839A83AB831C
:10140000BC8389819A81AB81BC810197A109B10913
:1014100089839A83AB83BC830196A11DB11D00977C
:10142000A105B10571F70F900F900F900F90CF911C
:10143000DF910895EF92FF920F931F93E62EF82EFF
:1014400019C00E943914AB01BC010F2D10E0C80176
:1014500034E0880F991F3A95E1F7855D964F0E9419
:101460000518000F111F0555154F0E944120F80166
:101470006083F394FE1428F31F910F91FF90EF9077
:101480000895AF92BF92CF92DF92EF92FF920F93A7
:101490001F93CF93DF93A82EB62E082F10E078016C
:1014A000EE0CFF1CE70173E0CC0FDD1F7A95E1F72E
:1014B000CD5CD64F288339834A835B8364E0000F79
:1014C000111F6A95E1F75BE2C52E59E0D52EC00EDB
:1014D000D11E6B2D70E080E090E00E94DB25F601CC
:1014E0006083718382839383015D164F8BEA9AE058
:1014F000E80EF91EF701608170E080E090E00E9444
:10150000DB25F80160837183828393830E94391401
:10151000F6016487758786879787F7018081B816FB
:1015200041F480E090E0A0E0B0E088839983AA8352
:10153000BB838A2D0E94F900DF91CF911F910F91FB
:10154000FF90EF90DF90CF90BF90AF9008951F93E2
:10155000182F0E94F900873021F4812F60E00E944B
:10156000FE061F9108951F93182F0E94F9008730DF
:1015700079F41C3018F080910F0602C080910E069D
:10158000882331F0812F61E00E94FE0681E001C0D6
:1015900080E01F910895CF92DF92EF92FF920F9318
:1015A0001F93DF93CF9300D000D0CDB7DEB7682F65
:1015B00070E0CB0113E0880F991F1A95E1F7D82E40
:1015C0006F5F7F4FB3E0660F771FBA95E1F7C62EC6
:1015D000209128002068209328000E941A0A86E69D
:1015E0009EE00197F1F70D2D10E0EC2CFF2405C0D3
:1015F000802F0E94B30A0F5F1F4F0E151F05C0F307
:1016000082E291E0A0E0B0E089839A83AB83BC835F
:1016100089819A81AB81BC810197A109B109898334
:101620009A83AB83BC830196A11DB11D0097A105D0
:10163000B10571F700E010E017C0EF2DF0E0EE0FFC
:10164000FF1FE555F54F808190E00817190719F441
:101650008F2D0E94A70AF394FC1478F30F5F1F4F9D
:1016600081E00030180711F0FD2CF6CF80912800A2
:101670008F77809328001D2D04C0812F0E94A70A18
:101680001F5F1C15D0F30F900F900F900F90CF910C
:10169000DF911F910F91FF90EF90DF90CF90089511
:1016A0001F93182F0E94CD03812F61E00E94D30762
:1016B0001F91089580918206909183060895FC0100
:1016C0009B0140E050E084E796E0BF010E94D91AF8
:1016D00008951F920F920FB60F9211242F933F93EC
:1016E0004F935F936F937F938F939F93AF93BF932A
:1016F000EF93FF936091CE0084E796E00E942E1D49
:10170000FF91EF91BF91AF919F918F917F916F91D9
:101710005F914F913F912F910F900FBE0F901F90AF
:1017200018959B01AC01203880E7380780E0480716
:1017300080E0580709F481C0213880E7380780E04D
:10174000480780E05807B0F5203885E2380780E088
:10175000480780E0580709F467C0213885E2380758
:1017600080E0480780E0580798F4203689E0380781
:1017700080E0480780E0580709F450C0203C82E12F
:10178000380780E0480780E0580709F045C049C0A5
:10179000203488E3380780E0480780E0580709F4E0
:1017A00046C020308BE4380780E0480780E05807C7
:1017B00099F540C020308CE2380781E0480780E08E
:1017C000580709F443C021308CE2380781E048070C
:1017D00080E0580788F4203086E9380780E0480721
:1017E00080E0580769F1203081EE380780E0480733
:1017F00080E0580789F427C0203082EC380781E068
:10180000480780E0580729F1203084E8380783E052
:10181000480780E0580701F180E008958FED91E0DE
:101820001DC08FEE90E01AC087E790E017C08FE4EC
:1018300090E014C08BE390E011C087E290E00EC00E
:101840008DE190E00BC083E190E008C08EE090E075
:1018500005C089E090E002C084E090E09093CD0064
:101860008093CC00CA01B9010E940D0681E0089561
:101870000E94910B0895982FE82FF0E0E552F54F64
:10188000808183FF14C01092C900892F0E94F90043
:101890008850823060F480E162E040E021E00E9404
:1018A000120181E162E040E021E00E94120108950E
:1018B0000E94B5050E94910B882331F460E07BE41F
:1018C00080E090E00E94910B80E161E00E94D307EC
:1018D00081E160E00E94D30781E161E00E94FE06A1
:1018E00086E08093CA0088E98093C9001092C800FE
:1018F00084E796E060E176E024E630E040E050E006
:101900000E94D51C089581E0809386060895E82FF3
:10191000F0E0E831F10540F4EA57FF4FEE0FFF1F0A
:101920000590F491E02D099420E094C020E080918E
:101930008706909188063BC020E0809189069091AF
:101940008A0635C020E080918B0690918C062FC0CE
:1019500020E080918D0690918E0629C020E0809134
:101960008F069091900623C020E08091910690917F
:1019700092061DC020E0809193069091940617C0B6
:1019800020E0809195069091960611C020E080910C
:101990009706909198060BC020E08091990690914F
:1019A0009A0605C020E080919B0690919C06892BA9
:1019B00009F450C04EC020E080919D0690919E0693
:1019C000F6CF20E080919F069091A006F0CF20E016
:1019D0008091A1069091A206EACF20E08091A30613
:1019E0009091A406E4CF20E08091A5069091A606F0
:1019F000DECF20E08091A7069091A806D8CF20E006
:101A00008091A9069091AA06D2CF20E08091AB06E2
:101A10009091AC06CCCF20E08091AD069091AE06BF
:101A2000C6CF20E08091AF069091B006C0CF20E0F5
:101A30008091B1069091B206BACF20E08091B306B2
:101A40009091B406B4CF20E08091B5069091B6068F
:101A5000AECF21E0822F0895E82FF0E0E831F105C4
:101A600008F028C1E256FF4FEE0FFF1F0590F491DA
:101A7000E02D09941092880610928706662331F0B3
:101A800081E090E0909388068093870610928A0602
:101A900010928906662331F081E090E090938A06E7
:101AA0008093890610928C0610928B06662331F083
:101AB00081E090E090938C0680938B0610928E06C6
:101AC00010928D06662331F081E090E090938E06AF
:101AD00080938D061092900610928F06662331F047
:101AE00081E090E09093900680938F06109292068A
:101AF00010929106662331F081E090E09093920677
:101B0000809391061092940610929306662331F00A
:101B100081E090E09093940680939306109296064D
:101B200010929506662331F081E090E0909396063E
:101B3000809395061092980610929706662331F0CE
:101B400081E090E0909398068093970610929A0611
:101B500010929906662331F081E090E090939A0606
:101B60008093990610929C0610929B06662331F092
:101B700081E090E090939C0680939B0610929E06D5
:101B800010929D06662331F081E090E090939E06CE
:101B900080939D061092A00610929F06662331F056
:101BA00081E090E09093A00680939F061092A20699
:101BB0001092A106662331F081E090E09093A20696
:101BC0008093A1061092A4061092A306662331F01A
:101BD00081E090E09093A4068093A3061092A6065D
:101BE0001092A506662331F081E090E09093A6065E
:101BF0008093A5061092A8061092A706662331F0DE
:101C000081E090E09093A8068093A7061092AA0620
:101C10001092A906662331F081E090E09093AA0625
:101C20008093A9061092AC061092AB06662331F0A1
:101C300081E090E09093AC068093AB061092AE06E4
:101C40001092AD06662331F081E090E09093AE06ED
:101C50008093AD061092B0061092AF06662331F065
:101C600081E090E09093B0068093AF061092B206A8
:101C70001092B106662331F081E090E09093B206B5
:101C80008093B1061092B4061092B306662331F029
:101C900081E090E09093B4068093B3061092B6066C
:101CA0001092B506662331F081E090E09093B6067D
:101CB0008093B50608958B3009F448C08C3038F411
:101CC0008930D1F08A3058F5883069F40FC08D30F2
:101CD00009F457C08D3008F446C08E3009F466C050
:101CE0008F3009F473C040E050E081C04091B706E6
:101CF0008091B806582F11C08091B80686958695B8
:101D000086959091B906292F2295220F207E422F89
:101D1000482B969596959695592F577068C0809147
:101D2000B90682958695869583702091BA06922F82
:101D3000990F990F492F482B2295269526952370A8
:101D40008091BB068170880F880F2DC08091BB06E3
:101D500086959091BC06292F279522272795422FFB
:101D6000482B9695D9CF8091BC0682958F70909123
:101D7000BD06292F2295207F422F482B92959F70D8
:101D8000CBCF8091BD06881F8827881F2091BE0673
:101D9000922F990F492F482B221F2227221F809113
:101DA000BF068370880F582F522B21C08091BF0629
:101DB000869586959091C006292F2295220F220F95
:101DC000207C422F482B96959695A6CF8091C006F1
:101DD0008295869587702091C106922F990F990F51
:101DE000990F492F482B522F529556955770CA017B
:101DF00008958B3009F45BC08C3040F48930E9F0F1
:101E00008A30A8F5883009F0C7C00DC08D3009F4BC
:101E10007BC08D3008F461C08E3009F491C08F30E2
:101E200009F0BAC0A6C06093B706972F977080914B
:101E3000B806887F892B8093B806962F990F990F43
:101E4000990F8091B8068770892B8093B806262F4A
:101E50002295269527708091B906807C972F9770E0
:101E6000990F990F990F822B892B8093B906962F82
:101E70009295990F990F907C8091B9068F73892B59
:101E80008093B906972F9295990F990F907C862F82
:101E900086958695892B8093BA06972F9695969569
:101EA00091708091BB068E7F892B8093BB06962F05
:101EB000990F8091BB068170892B8093BB06262FDA
:101EC000221F2227221F8091BC06807F972F9770A8
:101ED000990F822B892B8093BC06962F9295907F29
:101EE0008091BC068F70892B8093BC06262F22958B
:101EF0002F708091BD068078972F97709295907F74
:101F0000822B892B8093BD06962F979599279795BD
:101F10008091BD068F77892B8093BD06972F97956B
:101F200099279795862F8695892B8093BE06972FA4
:101F3000969593708091BF068C7F892B8093BF0606
:101F4000962F990F990F8091BF068370892B8093EC
:101F5000BF06262F22952695269523708091C006D0
:101F6000807E972F9770990F990F822B892B8093E2
:101F7000C006962F9295990F907E8091C0068F7122
:101F8000892B8093C0067295770F707E6695669553
:101F90006695672B6093C1060895EF92FF920F93A9
:101FA0001F93CF93DF9380918606813039F480911F
:101FB00028008F7B80932800109286060E94391497
:101FC0007B018C01609108017091090180910A01E7
:101FD00090910B0120E030E040E050E00E94992415
:101FE0001816A4F080E090E0A0E9B1E480930C0121
:101FF00090930D01A0930E01B0930F01E0920801A0
:10200000F092090100930A0110930B0160911001F5
:1020100070911101809112019091130120E030E044
:1020200040E050E00E949924181614F180E090E0FE
:10203000A0E9B1E48093140190931501A0931601D7
:10204000B0931701609108017091090180910A0114
:1020500090910B0120E030E040EC50E40E94C62259
:1020600060931001709311018093120190931301FA
:10207000609118017091190180911A0190911B01D2
:1020800020E030E040E050E00E949924181614F15E
:1020900080E090E0A0E9B1E480931C0190931D01E1
:1020A000A0931E01B0931F01609110017091110166
:1020B000809112019091130120E030E040EC50E457
:1020C0000E94C622609318017093190180931A012F
:1020D00090931B01609100017091010180910201B8
:1020E0009091030120E030E040E050E00E9499240C
:1020F0001816A4F080E090E0A0EAB0E48093040118
:1021000090930501A0930601B0930701E0920001AE
:10211000F0920101009302011093030188E091E025
:102120000E94941620E030E040E050E00E949924A4
:1021300018161CF480E00E94CB0A80E191E00E9416
:10214000941620E030E040E050E00E9499241816F8
:102150001CF481E00E94CB0A88E191E00E94941671
:1021600020E030E040E050E00E94992418161CF472
:1021700082E00E94CB0A80E091E00E94941620E069
:1021800030E040E050E00E94992418160CF062C044
:1021900080918606882309F05DC00E945A0B892B26
:1021A00019F00E94961156C010E0EE24E394812F9E
:1021B0000E94F900843019F5812F0E94A904082F8C
:1021C000F92EC82FD92F812F0E945B0E9C01CE01C2
:1021D0000496821793073CF0CE010497281739071D
:1021E00074F4249764F0E0928606812F602F7F2D8F
:1021F0000E94F90E812F602F7F2D0E947E111F5F9C
:102200001831A9F610E001E0812F0E94F900823018
:1022100021F0803111F08331D1F4812F0E948B069F
:10222000C0E0D0E0882311F0C1E0D0E0812F0E940F
:10223000870C90E0C817D90751F000938606812FCC
:102240006C2F0E942C0D812F6C2F0E946C111F5F30
:102250001831D1F6DF91CF911F910F91FF90EF9040
:102260000895EF92FF921F93CF93DF93182F7B0176
:1022700083E00E94ED1580E00E94ED1580E00E9451
:10228000ED1580E00E94ED1580E00E94ED1580E0E4
:102290000E94ED1580E00E94ED1580E20E94ED1590
:1022A00083EE0E94ED15812F0E94ED15812F8A5F2C
:1022B0000E94ED15C0E0D0E0F701EC0FFD1F80811A
:1022C0000E94ED152196C430D105B1F7DF91CF9171
:1022D0001F91FF90EF9008950F931F93182F062FD3
:1022E00086E060E271E00E943111812F0E94ED15BD
:1022F000802F0E94ED151F910F910895FF920F936B
:102300001F93182FF62E072F87E060E271E00E94DE
:102310003111812F0E94ED15802F0E94ED158F2D18
:102320000E94ED151F910F91FF900895CF92DF92BB
:10233000EF92FF920F931F93DF93CF930F92CDB73E
:10234000DEB70E945A0B7C018B5F60E271E00E9455
:10235000311181E10E94ED1500E010E06E0108945A
:10236000C11CD11C0AC0C60161E070E00E945F0B75
:1023700089810E94ED150F5F1F4F0E151F0598F301
:102380000F90CF91DF911F910F91FF90EF90DF9011
:10239000CF9008950E9476168091270080688093E0
:1023A0002700809127008064809327008091280077
:1023B0008F7780932800809128008F7B809328005E
:1023C000809124008B7F80932400809125008B7F57
:1023D00080932500809124008D7F8093240080913C
:1023E00025008D7F8093250082E060E040E00E9420
:1023F0009D090E94050480E168E273E10E94A31D2B
:1024000080E267E772E10E94A31D80E361E172E16F
:102410000E94A31D0E94761685E291E00E94881614
:1024200008950F931F93CF93DF93EC0186E0809381
:10243000C2068B859C85AD85BE85833623E69207D3
:1024400028E6A2072EE6B20779F0833723E6920743
:1024500028E6A20726E7B20729F18F559D46A14637
:10246000B34681F080E03EC0CE010E94E500482FD7
:10247000882321F4CE016091C20631C0CE01609163
:10248000C20621C0CE010F960E945F06882329F064
:10249000CE016091C20641E016C0CE016091C20635
:1024A00041E01DC00F851889CE010E94B902882322
:1024B00091F0802F612F0E94B903882339F0CE015B
:1024C0006091C20642E00E943A170BC0CE016091B3
:1024D000C20642E004C0CE016091C20643E00E9401
:1024E0005E1781E0DF91CF911F910F910895CF92F8
:1024F000DF92EF92FF920F931F93CF93DF93EC0144
:1025000085E08093C2068B859C85AD85BE8583372B
:1025100023E6920728E6A2072DE6B20771F1843779
:10252000E3E69E07E8E6AE07EDE6BE0778F48536FB
:10253000F5E69F07F0E7AF07F4E6BF0709F459C0D7
:1025400083579146A346BD46B1F422C08337E1E6E6
:102550009E07E3E6AE07E6E7BE07A1F18337F3E6A1
:102560009F07F8E6AF07F6E7BF07E9F08F559047FA
:10257000A747B247C1F180E062C0CE010E94CE0100
:10258000882309F05BC0CE016091C20640E054C0D0
:10259000CE010E94BA01882309F050C0CE0160919B
:1025A000C20641E049C0CE010E94B902882329F049
:1025B000CE016091C20642E00EC0CE016091C2061B
:1025C00042E03AC0CE010E947102882339F0CE0168
:1025D0006091C20645E20E943A1730C0CE01609178
:1025E000C20643E029C08A896F8548890E949D09F7
:1025F00025C08F85482F50E08889282F30E0241788
:102600003507B8F07E01EA0100E010E06901CC1A5C
:10261000DD0A08C0CE01F70160890E9405060F5F40
:102620001F4F21960894E11CF11C0C151D0590F319
:1026300005C0CE0165E044E00E945E1781E0DF91B5
:10264000CF911F910F91FF90EF90DF90CF90089561
:102650008F929F92AF92BF92CF92DF92EF92FF92B2
:102660000F931F93DF93CF930F92CDB7DEB78C01FB
:1026700084E08093C206F80183859485A585B6859C
:102680008136F1E69F07F3E7AF07FEE6BF0709F4DF
:10269000A5C0823621E6920723E7A2072EE6B207FD
:1026A000B0F48736E1E69E07E3E6AE07EDE6BE0747
:1026B00079F18736F3E69F07F8E6AF07FDE6BF0737
:1026C000F9F085569546A047B446C1F443C08F350E
:1026D000E2E79E07E5E6AE07E6E7BE0709F463C05A
:1026E0008736F3E69F07F8E6AF07F6E7BF0729F15D
:1026F00084569146A347BE4609F45EC080E096C06A
:10270000F80187850E94AB05F801808B86E011C037
:10271000780190E0892F99830E94AB05F7018787A4
:1027200099819F5F0894E11CF11C983199F78CE125
:10273000F801818780E2878378C00E94830CC801FA
:102740000E944503882309F070C0C8016091C20649
:1027500040E026C0F801C7842C2D30E0D088AD2C95
:10276000BB2480E28783A216B306B8F07801490142
:1027700008C0C4010E94DB05F70186870894811C0C
:10278000911C0894E11CF11C8A149B0490F3F4E062
:10279000DF0EDC18F801D18648C0C80164E041E0D2
:1027A0000E945E1742C083E0F801878797E0908B14
:1027B00086E0818B918739C00E94830C6801FF24D9
:1027C0008F2D0E940E03F6018787F3940894C11C95
:1027D000D11CF8E1FF16A1F78CE11AC00E94830C0E
:1027E000680188E0F82E8F2D0E940E03F4E08030FF
:1027F0009F0710F08FEF93E0F6019787808BF3949B
:1028000082E090E0C80ED91E90E1F91661F784E1EC
:10281000F801818780E2878384E491E00E94D517E4
:10282000F801638774878587968781E00F90CF9141
:10283000DF911F910F91FF90EF90DF90CF90BF90AD
:10284000AF909F908F900895AC0120E030E00CC0D5
:10285000FA01E20FF31FE0818091C00085FFFCCFF9
:10286000E093C6002F5F3F4F2617370788F3CB0151
:1028700008952F923F924F925F926F927F928F9224
:102880009F92AF92BF92CF92DF92EF92FF920F93FF
:102890001F9380918400909185001C01442455244D
:1028A0006624772443018091DF079091E0073091FF
:1028B000E1074091E2075091E3076091E4077091CE
:1028C000E507E091E607A22CA80E81E0A21408F02B
:1028D00080E0B32CB90E91E0B31408F090E0282FFB
:1028E0002B0D81E02B1508F080E0982BB22EC32E23
:1028F00021E0341508F020E09C0D81E09C1508F0E3
:1029000080E0282BC92ED42E91E0451508F090E0E8
:102910002D0D81E02D1508F080E0982BD22EE52EAC
:1029200021E0561508F020E09E0D81E09E1508F08C
:1029300080E0282BE92EF62E31E0671508F030E014
:10294000922F9F0D81E09F1508F080E0382BF92E23
:10295000072F91E0781508F090E0232F200F81E0F9
:10296000201708F080E0982B022F9E0F9501A601FA
:10297000B701802F0E946D2020E030E040E951E453
:102980000E94ED231F910F91FF90EF90DF90CF9069
:10299000BF90AF909F908F907F906F905F904F907F
:1029A0003F902F900895982F8091C900882369F453
:1029B0001092CD0089E08093CC0086E08093CA001D
:1029C00088E08093C9001092C8008091C80085FFFC
:1029D000FCCF9093CE0008951092DF071092E0078D
:1029E0001092E1071092E2071092E3071092E407B9
:1029F0001092E5071092E607809180008C7F80930B
:102A0000800080918100887F856080938100809123
:102A10006F00816080936F0008959F92AF92BF9284
:102A2000CF92DF92EF92FF920F931F9380918400D9
:102A3000909185009C0140E050E060E070E080E013
:102A400090E0E090DF07E091E007B091E10710919E
:102A5000E2070091E307F090E407D090E50790903B
:102A6000E607E20EA1E0E21608F0A0E0E30FF1E0D5
:102A7000E31708F0F0E0AA2EAE0EA1E0AE1608F0C3
:102A8000A0E0FA2BE1E0B41708F0E0E0BF2EBB0EA7
:102A9000F1E0BB1608F0F0E0EF2BF1E0151708F0BD
:102AA000F0E0CE2EC10EE1E0C11608F0E0E0FE2B12
:102AB000E1E0061708F0E0E01F2F100FF1E010171B
:102AC00008F0F0E0EF2BF1E0F71608F0F0E0BE2F91
:102AD000BF0DE1E0BF1508F0E0E0FE2BA1E0D81645
:102AE00008F0A0E08F2F8D0DE1E08D1508F0E0E0FB
:102AF000AE2B2E2D3A2D4B2D5C2D612F7B2F9A2F37
:102B0000990D1F910F91FF90EF90DF90CF90BF90A4
:102B1000AF909F9008951F920F920FB60F921124BD
:102B20002F933F934F935F936F937F938F939F93D5
:102B3000AF93BF93EF93FF93A091DF07B091E007AE
:102B40008091E1073091E2074091E3076091E4074B
:102B5000E091E507F091E607282F2F5F91E0281715
:102B600008F090E0822F792F730F91E0731708F02F
:102B700090E0592F540F91E0541708F090E0392F4E
:102B8000360F91E0361708F090E0292F2E0F91E0D4
:102B90002E1708F090E09F0FA093DF07B093E00797
:102BA0008093E1077093E2075093E3073093E407C3
:102BB0002093E5079093E607FF91EF91BF91AF91C6
:102BC0009F918F917F916F915F914F913F912F9145
:102BD0000F900FBE0F901F901895982F8091C000F6
:102BE00085FFFCCF9093C6000895982F8091C9006F
:102BF000882369F41092CD0089E08093CC0086E0B0
:102C00008093CA0088E08093C9001092C800809128
:102C1000C80085FFFCCF9093CE0008959093C50027
:102C20008093C40086E08093C20088E98093C1004D
:102C30001092C00008951092CD0089E08093CC00DE
:102C400086E08093CA0088E08093C9001092C80093
:102C500008951F920F920FB60F9211242F933F9356
:102C60004F935F936F937F938F939F93AF93BF9394
:102C7000EF93FF93F8946091C6008DEC97E00E946B
:102C80002E1D7894FF91EF91BF91AF919F918F91FD
:102C90007F916F915F914F913F912F910F900FBE58
:102CA0000F901F901895F8941092C50089E08093BA
:102CB000C40086E08093C20088E98093C10010922E
:102CC000C00089E491E00E948A168DEC97E063ECE5
:102CD00076E02AE031E040E050E00E94D51C789494
:102CE00008956DEC77E00E94501A089508950895B4
:102CF000E82FF0E0EF70F070E25BFE4F8081089506
:102D000082958F70EEE4F1E0E80FF11D8081089567
:102D100008950895089508950895089508950895CB
:102D20000895089581E008956F927F928F929F9207
:102D3000AF92BF92CF92DF92EF92FF920F931F93C9
:102D4000CF93DF93EC010E9439147B018C01288121
:102D500039814A815B810E94F924882324F4E88226
:102D6000F9820A831B83C801B701288139814A810E
:102D70005B810E9495223B014C01AC80BD80CE80DE
:102D8000DF80A60195010E94992418162CF0E0E03E
:102D900070E080E060E016C0C801B701A4019301B3
:102DA0000E949522A60195010E94C622688379831C
:102DB0008A839B83C401B301A60195010E949522D9
:102DC000E62F692F2E2F372F482F562FB901CA0112
:102DD000DF91CF911F910F91FF90EF90DF90CF90F7
:102DE000BF90AF909F908F907F906F9008951F93AA
:102DF00090E023E0880F991F2A95E1F7825A9E4FB1
:102E00000E94941610E020E030E040E050E00E9484
:102E1000992418160CF411E0812F1F910895DC01FC
:102E200020E030E090E007C0FD01E90FF11D808156
:102E3000280F311D9F5F9A30B8F39093E70790E019
:102E40001A968C91821709F491E0892F0895DC017C
:102E500020E030E090E007C0FD01E90FF11D808126
:102E6000280F311D9F5F9A30B8F39093E7071A96A9
:102E70002C930895FC01178289E78093EB0784E681
:102E80008093EA0782E78093E9078FE58093E8075C
:102E90008091E8079091E907A091EA07B091EB07CC
:102EA00083879487A587B68780858078808786E02A
:102EB00081876787408B86E090E00895FC01178248
:102EC00082E78093EB078093EA0785E68093E90722
:102ED0008FE58093E8078091E8079091E907A0913A
:102EE000EA07B091EB0783879487A587B68780852B
:102EF0008078808786E081876787408B86E090E0D6
:102F00000895FC016187862F90E00895FC012185DA
:102F100030E0255F3F4FC9010895FC01818590E0B5
:102F20000895CF93DF93EC0120E008C0FB01EA0F86
:102F3000FB1FAC0FBD1F8C9180832F5FA22FB0E0D1
:102F4000898590E00A968A179B0784F7DF91CF91D5
:102F50000895EF92FF920F931F93E62EFF2400E057
:102F600010E08701FF24EE2490E0A0E0B0E0B82F4D
:102F7000AA2799278827E80EF91E0A1F1B1F50E071
:102F800060E070E0762F652F542F4427E40EF51E85
:102F9000061F171FE20EF11C011D111DB701C8010C
:102FA0001F910F91FF90EF900895FC018381809312
:102FB000EB0782818093EA0781818093E907608132
:102FC0006093E807782F8091EA079091EB070895C6
:102FD000AC011092E70720E012C0E22FF0E0322FA0
:102FE0003F5FDA01AE0FBF1FE60FF71F9C91808194
:102FF000981721F02093E70780E00895232F2630CB
:1030000060F32093E70781E008952F923F924F925B
:103010005F926F927F928F929F92AF92BF92CF9268
:10302000DF92EF92FF920F931F93DF93CF9300D025
:1030300000D0CDB7DEB78C015A016B01DC011896C8
:103040002D903D904D905C901B97C201B10120E006
:1030500030E040E050E00E94992418160CF097C030
:10306000C601B501F80124853585468557850E943E
:1030700095223B014C01A20191010E94F924882371
:103080000CF077C0C401B30120E030E040E050E034
:103090000E94992418160CF06CC0D801AD90BD9018
:1030A000CD90DC90139714968D919D910D90BC91CD
:1030B000A02D89839A83AB83BC83C601B501298186
:1030C0003A814B815C810E9495227B018C01C20177
:1030D000B101A40193010E949522A20191010E94D5
:1030E000ED239B01AC0160E070E080E89FE30E946B
:1030F00095229B01AC01C801B7010E94F3229B01FC
:10310000AC0169817A818B819C810E94C6223B013E
:103110004C01C601B50129813A814B815C810E9435
:10312000992418169CF4C401B301A60195010E94CC
:1031300099241816ECF1C401B30129813A814B811D
:103140005C810E94F92487FD33C030C0C401B30103
:10315000A60195010E94F92487FD2AC0C401B3018C
:1031600029813A814B815C810E949924181604F1CF
:103170001DC080E090E0A0E0B0E0F801808791877A
:10318000A287B387A080B180C280D38011C0D8014C
:10319000AD90BD90CD90DC9080E090E0A0E0B0E0FC
:1031A000F80180879187A287B38702C06401530129
:1031B000B501C6010F900F900F900F90CF91DF9146
:1031C0001F910F91FF90EF90DF90CF90BF90AF9045
:1031D0009F908F907F906F905F904F903F902F9037
:1031E0000895FC01868597850895FC018091CC02A5
:1031F00081838091CD0282838091CE0283838091EE
:10320000CF0284838091D00285838091D10286830E
:1032100083E08083CF010E94271708950F931F93A7
:103220008C01FC01808580688087C8010E94F518A8
:10323000C8010E948617BC01C8010E9424141F9176
:103240000F9108950F931F93FC018B01CA0120E099
:1032500030E0BF01A90198010E94D91ACB011F914A
:103260000F9108958F929F92BF92CF92DF92EF922B
:10327000FF920F931F93DF93CF930F92CDB7DEB7DB
:103280008C017B01D42EFB0186859785892B31F437
:10329000442309F4E5C08EE891E043C0C02EB12E6E
:1032A000C80141E050E060E070E097010E94451BDA
:1032B000F80180818330F1F42AC0C701B40121E014
:1032C00030E040E050E00E94D91A83EA91E00E9489
:1032D0008816F801608170E080E090E00E948B1613
:1032E0008C2D9B2D41E050E060E070E097010E9442
:1032F000451B04C04E010894811C911CF701868572
:103300009785892B21F0F80180818330B1F6F70190
:10331000868597850F9740F4DD2009F4A1C08DEBD9
:1033200091E00E94881695C08C2D9B2D4BE050E0BB
:1033300060E070E097010E94451B4E010894811CDB
:10334000911CF8018081833029F4C8010E940F1775
:10335000882371F5F8018081833019F081ED91E0C7
:1033600007C0C8010E940F17882321F483EE91E063
:103370000E94881684EF91E00E948A16F80160810D
:1033800070E080E090E00E948B16C701B40121E05C
:1033900030E040E050E00E94D91A8C2D9B2D4BE08C
:1033A00050E060E070E097010E94451B20E007C0FC
:1033B000DD2021F081E092E00E94881621E0F701F3
:1033C00086859785892B29F48CE092E00E948816E7
:1033D00047C0222309F4B5CFF8018185082F10E0FA
:1033E0000430110530F4DD2021F087E292E00E94E4
:1033F0008816055F1F4FF70186859785801791070F
:10340000C8F0DD2069F086E492E00E948816B801D9
:1034100080E090E00E948B1687E592E00E948A1679
:10342000980140E050E0C7016C2D7B2D0E94D91A15
:1034300081E017C0DD20A1F085E792E00E948816A8
:10344000B80180E090E00E948B168FE992E00E9424
:103450008A16F7016685778580E090E00E948B16DA
:1034600080E00F90CF91DF911F910F91FF90EF902F
:10347000DF90CF90BF909F908F900895EF92FF9232
:103480000F931F938C017B010E947616C801B70130
:1034900041E00E9432191F910F91FF90EF90089523
:1034A00040E00E94321908950F931F93CF93DF934A
:1034B000EC010E9471168823F1F187EA92E00E94E4
:1034C0008816CE010E948D168E010F5F1F4F8CEC67
:1034D00092E0B8010E94E817813039F086EC92E062
:1034E000B8010E94E817813011F5CE010E94871FB4
:1034F00090E00BC0E92FF0E0DE01AE0FBF1FE453F8
:10350000FD4F808111968C939F5F963098F3909336
:10351000EC07CE010E942717CE010E940E198CEAFB
:1035200092E00E948816CE010E948D1604C086EBA0
:1035300092E00E94881680E0DF91CF911F910F9159
:1035400008950E94EC140E94531681E162ED72E02E
:103550000E94D11D0895CF93DF93EC0120E030E06D
:1035600040E050E009C0EC81FD81E20FF31F1082C2
:103570002F5F3F4F4F4F5F4F88819981AA81BB8159
:10358000281739074A075B0770F32093ED0730933C
:10359000EE074093EF075093F007DF91CF91089526
:1035A000FC01A481B58186819781A80FB91F8C91F8
:1035B0000895AF92BF92CF92DF92EF92FF920F9356
:1035C0001F93CF93DF93EC0159016A01EE24FF248E
:1035D000870140C08E859F85A889B9890097A1057C
:1035E000B10579F1EC81FD818E819F81E80FF91F92
:1035F0008081FB0180838E819F81A885B98501969A
:10360000A11DB11D8E839F83A887B9872881398129
:103610004A815B8182179307A407B50721F41E82B4
:103620001F8218861986F8948E859F85A889B98986
:103630000197A109B1098E879F87A88BB98B7894D0
:1036400002C0FB0110820894E11CF11C011D111D38
:103650006F5F7F4FEA14FB040C051D0508F4BACF19
:10366000E092ED07F092EE070093EF071093F0075A
:10367000B701C801DF91CF911F910F91FF90EF909B
:10368000DF90CF90BF90AF900895AF92BF92CF924E
:10369000DF92EF92FF920F931F93CF93DF935A0124
:1036A0006B01B901D9011696ED90FD900D911C9119
:1036B0001997EC0120E030E040E050E029C0FB0128
:1036C00086859785A089B1890097A105B105D1F0BC
:1036D0000480F581E02DEE0DFF1D80818883089424
:1036E000E11CF11C011D111DFB0180819181A28152
:1036F000B381E816F9060A071B0729F4EE24FF2414
:10370000870101C018822F5F3F4F4F4F5F4F2196B7
:103710002A153B054C055D0590F22093ED0730938B
:10372000EE074093EF075093F007B901CA01DF910C
:10373000CF911F910F91FF90EF90DF90CF90BF90AE
:10374000AF900895CF93DF93EC017D836C83288342
:1037500039834A835B831E821F82188619861A86E4
:103760001B861C861D8620E030E040E050E011C042
:10377000C901880F991F880F991FEC81FD81E80FFF
:10378000F91F10821182128213822F5F3F4F4F4F19
:103790005F4F88819981AA81BB81281739074A0721
:1037A0005B0730F32093ED073093EE074093EF076C
:1037B0005093F007DF91CF910895CF93DF93EC0101
:1037C00020E030E040E050E011C0C901880F991FAF
:1037D000880F991FEC81FD81E80FF91F108211827B
:1037E000128213822F5F3F4F4F4F5F4F8881998125
:1037F000AA81BB81281739074A075B0730F320935A
:10380000ED073093EE074093EF075093F007DF91F9
:10381000CF910895EF92FF920F931F93CF93DF9371
:10382000EC018A859B85880F991F880F991FEC8171
:10383000FD81E80FF91F40835183628373838A857A
:103840009B85AC85BD850196A11DB11D8A879B878F
:10385000AC87BD87288139814A815B8182179307B4
:10386000A407B50721F41A861B861C861D868E8543
:103870009F85A889B9890196A11DB11D8E879F8753
:10388000A88BB98BEE24FF248701288139814A81D6
:103890005B81281739074A075B0728F0E1E0EE2E25
:1038A000F12C012D112DB701C801DF91CF911F918E
:1038B0000F91FF90EF900895AF92BF92CF92DF9259
:1038C000EF92FF920F931F93CF93DF93EC01590177
:1038D0006A01EE24FF2487014DC08E859F85A8894B
:1038E000B9890097A105B105C9F18E819F81880F23
:1038F000991F880F991FEC81FD81E80FF91F8081C6
:103900009181A281B381FB0180839183A283B383E0
:103910008E819F81A885B9850196A11DB11D8E83D9
:103920009F83A887B987288139814A815B81821763
:103930009307A407B50721F41E821F8218861986F3
:10394000F8948E859F85A889B9890197A109B10945
:103950008E879F87A88BB98B789405C0FB01108256
:103960001182128213820894E11CF11C011D111DA9
:103970006C5F7F4FEA14FB040C051D0508F4ADCF06
:10398000E092ED07F092EE070093EF071093F00737
:10399000B701C801DF91CF911F910F91FF90EF9078
:1039A000DF90CF90BF90AF900895CF92DF92EF92CB
:1039B000FF920F931F93CF93DF93EC016B0179017B
:1039C0008A01009719F06115710541F483EE92E0C8
:1039D0000E948816C801B7010E948B16DD82CC8236
:1039E000E882F9820A831B831E821F821886198649
:1039F0001A861B861C861D8620E030E040E050E0E1
:103A000009C0EC81FD81E20FF31F10822F5F3F4F51
:103A10004F4F5F4F88819981AA81BB812817390751
:103A20004A075B0770F32093ED073093EE0740934E
:103A3000EF075093F00780912403909125030E9493
:103A40008816C801B7010E948B16DF91CF911F9194
:103A50000F91FF90EF90DF90CF900895EF92FF923B
:103A60000F931F93CF93DF93EC0188819981AA81F3
:103A7000BB810297A109B1092E853F8548895989E3
:103A8000281739074A075B07D0F0809151039091BE
:103A900052030E948816688179818A819B810E94E5
:103AA0008B1681E093E00E948A166E857F85888957
:103AB00099890E948B16EE24FF2487013BC0EC817C
:103AC000FD818A859B85E80FF91F60838A859B8528
:103AD000AC85BD850196A11DB11D8A879B87AC87EA
:103AE000BD87288139814A815B8182179307A407AA
:103AF000B50721F41A861B861C861D868E859F8538
:103B0000A889B9890196A11DB11D8E879F87A88BB1
:103B1000B98BEE24FF248701288139814A815B819A
:103B2000281739074A075B0728F0B1E0EB2EF12C84
:103B3000012D112DB701C801DF91CF911F910F9178
:103B4000FF90EF90089561157105F1F0803261F0FA
:103B5000803391F08031C1F481E08093210970932A
:103B6000230960932209089581E08093C30870932C
:103B7000C5086093C408089581E080936508709338
:103B8000670860936608089580E0089520912509EC
:103B9000309126094091270950912809B901CA019D
:103BA0000895FF920F931F93F82E8B0183E593E006
:103BB0000E948816C8010E948A162091F107822F60
:103BC00090E0FC01EE0FFF1FE80FF91FEF50F84FD8
:103BD000F182138302832F5F2093F1071F910F91CE
:103BE000FF900895EF92FF920F931F93CF93DF936F
:103BF0007C018B01FB018081882391F188E693E0B1
:103C00000E948816F801708160E024C0862F90E041
:103C1000EC01CC0FDD1FC80FD91FCC0FDD1FC00F6B
:103C2000D11F29813A814B815C81F701838594857D
:103C3000A585B685281739074A075B0751F48AE737
:103C400093E00E948A16ED81FE81C701099581E00B
:103C50000CC06F5F6717D0F28FE893E00E948A165E
:103C600082EA93E00E94881680E0DF91CF911F9155
:103C70000F91FF90EF900895CF93DF93EC01109296
:103C800024096AE078E00E94F21D8130B1F0809151
:103C90006508882391F086EB93E00E948816E091F6
:103CA0006608F0916708CE010995882331F4CE01AA
:103CB0006091240943E00E945E17DF91CF9108953F
:103CC000CF93DF93EC011092240968E678E00E941C
:103CD000F21D8130B1F08091C308882391F086EB0A
:103CE00093E00E948816E091C408F091C508CE01C7
:103CF0000995882331F4CE016091240942E00E94A5
:103D00005E17DF91CF91089560E040E00E945E175A
:103D10000895EF92FF920F931F93CF93DF937B0150
:103D2000EA0108810F3011F480E016C010E00E9413
:103D3000D517F801EE0FFF1FE00FF11FEE0FFF1F69
:103D4000EC0FFD1F6183728383839483F682E58287
:103D500088818F5F888381E0DF91CF911F910F91E0
:103D6000FF90EF90089541155105B9F0803249F068
:103D7000803361F0803189F4CB01BA0146EC58E020
:103D800009C0CB01BA0148E658E004C0CB01BA0132
:103D90004AE058E00E94891E089580E00895EF925D
:103DA000FF920F931F93DF93CF9300D00F92CDB765
:103DB000DEB78C0110922409FC0183859485A585CA
:103DC000B6858F35F0E79F07FEE6AF07F7E6BF073A
:103DD00039F08F559E46AD46B34709F06DC00FC010
:103DE00080E2F801878385EC93E00E94D517F80103
:103DF000638774878587968784E081877EC0F80112
:103E000081858430B9F485E0818780E28783809161
:103E1000F10787878AEC93E00E9488166091F1078A
:103E200070E080E090E00E948B1680ED93E00E94AD
:103E3000881663C08530E1F5F80197858091F10718
:103E4000981790F58CED93E00E948A1684E0F801B3
:103E5000818780E28783878590E0FC01EE0FFF1F5A
:103E6000E80FF91FDE011196EE50F84F83E0019044
:103E70000D928150E1F7EA80FB80C7010E948A160B
:103E800090E009C0A00FB11F1F96EC93F801818547
:103E90008F5F81879F5FA92FB0E0F701EA0FFB1FBB
:103EA000E081EE2379F729C0C80160E045E023C036
:103EB000C80160E044E01FC0C80166EC78E00E94E1
:103EC000F21D8130D1F0809121098823B1F086EB79
:103ED00093E00E948816E0912209F0912309C8011D
:103EE0000995882351F487EE93E00E948816C80153
:103EF0006091240941E00E945E170F900F900F908F
:103F0000CF91DF911F910F91FF90EF900895CF9384
:103F1000DF93EC018F81803171F0813118F48823B7
:103F200031F015C0803259F0803389F40CC0CE01D5
:103F300060E040E00FC0CE010E94CF1E0DC0CE0158
:103F40000E94601E09C0CE010E943C1E05C0CE0129
:103F500060E04FE70E945E1780E888870E9439146E
:103F60006093250970932609809327099093280967
:103F7000DF91CF91089520E030E0F901E552F54F4F
:103F80008081827080832F5F3F4F28313105A9F7F0
:103F90004091DB0A5091DC0AE091DD0A8091DF0A52
:103FA0009091E00A2091E10A3091E20A84688093BE
:103FB000DF0A94689093E00A24682093E10A346849
:103FC0003093E20A8091E30A9091E40A2091E50A95
:103FD0003091E60A81688093E30A91689093E40A3D
:103FE00021682093E50A31683093E60A8091E70A58
:103FF00081608093E70A8091E80A81608093E80AF3
:104000008091E90A81608093E90A8091EA0A8160DF
:104010008093EA0A7091EB0A6091EC0A8091DE0AC3
:1040200040674093DB0A50675093DC0AE067E093F7
:10403000DD0A80668093DE0A8091EE0A9091F00A94
:104040002091F20A3091ED0A4091EF0A5091F10A65
:1040500068666093EC0A80668093EE0A906690939F
:10406000F00A20662093F20A78667093EB0A3066B5
:104070003093ED0A40664093EF0A50665093F10A80
:104080000895EF92FF920F931F937B018C0120E024
:1040900030E040E05FE40E94C92488238CF0C8012E
:1040A000B70120E030E040E05FE40E9495220E94EA
:1040B00087259B01AC01205030404040504806C04D
:1040C000C801B7010E9487259B01AC01B901CA0153
:1040D0001F910F91FF90EF900895A2E0B0E0E3E709
:1040E000F0E20C94C828122FB32EA42E952E862E03
:1040F000372E282E9A83C22ED32EE42EF52EA7011A
:10410000960160E070E080E090E02117A1F43B159B
:1041100091F44A1581F4591571F4681561F4731519
:1041200051F4821541F4AA819A1729F4C701B60106
:104130000E94DB25AAC0212F3B2D4A2D592D682D29
:10414000732D822D9A8100E20E945426C901DA0162
:104150008030E0E09E07E1E0AE07E0E0BE0780F4DB
:104160008F3F9105A105B10531F028F028E030E03E
:1041700040E050E016C020E030E040E050E011C0E8
:104180008030F0E09F07F0E0AF07F1E0BF0728F0D4
:1041900028E130E040E050E004C020E130E040E0C1
:1041A00050E0022E04C0B695A795979587950A947E
:1041B000D2F7FC01ED5FFB4F808129013A01480EE7
:1041C000511C611C711C4982212F3B2D4A2D592DF8
:1041D000682D732D822D9A81042D0E945426C901C9
:1041E000DA014C015D0180E290E08419950904C078
:1041F000CC0CDD1CEE1CFF1C8A95D2F7C114D10437
:10420000E104F10441F081E090E0A0E0B0E0882A10
:10421000992AAA2ABB2A90E2491651046104710422
:1042200059F40F2EF0E0EF2EF0E0FF2EF0E80F2F04
:10423000FFE41F2FF02D21C0AFE14A1651046104A5
:10424000710459F40F2EF0E0EF2EF0E0FF2EF0E0B5
:104250000F2FFFE41F2FF02D10C061E070E080E011
:1042600090E0098004C0660F771F881F991F0A9489
:10427000D2F70E9429257B018C01C501B4010E945F
:10428000DB25A80197010E94F3222296E2E10C941B
:10429000E428A0E0B0E0EFE4F1E20C94C828DC01EF
:1042A0002B01FA019C91923008F439C1EB0188810D
:1042B000823008F433C1943069F4843009F02FC19E
:1042C00011969C9111978981981709F428C1ABEF39
:1042D000B3E025C1843009F421C18230A9F49230C1
:1042E00009F01DC19A01AD0188E0EA010990AE0113
:1042F000E90109929E018150C1F7E201898111967D
:104300009C918923818308C1923009F407C11296D8
:104310002D903C901397EB018A819B811496AD9070
:10432000BD90CD90DC901797EC80FD800E811F81B1
:104330009101281B390BB90137FF04C06627772785
:10434000621B730B603271050CF061C0121613060C
:104350006CF537014801062E04C096948794779433
:1043600067940A94D2F721E030E040E050E004C0C6
:10437000220F331F441F551F6A95D2F7215030403A
:10438000404050402E213F2140235123211531052B
:104390004105510521F021E030E040E050E0790195
:1043A0008A01E628F728082919293CC0232BD1F1D6
:1043B000260E371E35014601062E04C096948794BA
:1043C000779467940A94D2F721E030E040E050E01F
:1043D00004C0220F331F441F551F6A95D2F7215086
:1043E0003040404050402A213B214C215D21211585
:1043F00031054105510521F021E030E040E050E079
:1044000059016A01A628B728C828D9280BC08215E7
:1044100093052CF01C01AA24BB24650103C0EE24E3
:10442000FF24870111969C91D20111968C919817C7
:1044300009F445C0992339F0A80197012A193B09CD
:104440004C095D0906C0A60195012E193F09400BD4
:10445000510B57FD08C01182338222822483358399
:10446000468357831DC081E081833382228288275F
:104470009927DC01821B930BA40BB50B84839583D6
:10448000A683B7830DC0220F331F441F551F2483FB
:1044900035834683578382819381019793838283F7
:1044A0002481358146815781DA01C9010197A1092B
:1044B000B1098F5F9F4FAF4FBF4328F30BC091836C
:1044C00033822282EA0CFB1C0C1D1D1DE482F58246
:1044D0000683178383E08083248135814681578159
:1044E00057FF1AC0C901AA2797FDA095BA2F81705E
:1044F0009070A070B0705695479537952795822B90
:10450000932BA42BB52B84839583A683B7838281B9
:104510009381019693838283DF0101C0D201CD0193
:10452000CDB7DEB7E2E10C94E428A0E2B0E0EBE91D
:10453000F2E20C94D42869837A838B839C832D8345
:104540003E834F835887E9E0EE2EF12CEC0EFD1EE2
:10455000CE010196B7010E94F7278E010F5E1F4F13
:10456000CE010596B8010E94F7278A8991E0892734
:104570008A8BC701B801AE01475E5F4F0E94492197
:104580000E942227A096E6E00C94F028A0E2B0E07A
:10459000ECECF2E20C94D42869837A838B839C83BD
:1045A0002D833E834F835887F9E0EF2EF12CEC0EDC
:1045B000FD1ECE010196B7010E94F7278E010F5E06
:1045C0001F4FCE010596B8010E94F727C701B80119
:1045D000AE01475E5F4F0E9449210E942227A096AC
:1045E000E6E00C94F028A0E2B0E0E9EFF2E20C94EF
:1045F000C82869837A838B839C832D833E834F8372
:104600005887CE010196BE01675F7F4F0E94F72752
:10461000CE010596BE016F5E7F4F0E94F7279985F8
:10462000923088F089898230C8F0943019F4823051
:1046300051F404C0843029F4923081F48BEF93E07C
:10464000C6C0923049F420E09A858A89981321E007
:104650002A87CE010996BBC0823049F420E09A85B2
:104660008A89981321E02A8BCE014196B0C02D840F
:104670003E844F8458886D887E888F88988CEE247D
:10468000FF248701AA24BB24650140E050E060E0DC
:1046900070E0E0E0F0E0C10181709070892BE9F0FA
:1046A000E60CF71C081D191D9A01AB012A0D3B1DD4
:1046B0004C1D5D1D80E090E0A0E0B0E0E614F70442
:1046C0000805190520F481E090E0A0E0B0E0BA010F
:1046D000A901480F591F6A1F7B1FAA0CBB1CCC1CC9
:1046E000DD1C97FE08C081E090E0A0E0B0E0A82AC1
:1046F000B92ACA2ADB2A3196E032F10549F0660C64
:10470000771C881C991C5694479437942794C3CFE0
:10471000FA85EA892B893C898B859C85280F391F6E
:104720002E5F3F4F17C0CA0181709070892B61F0D6
:1047300016950795F794E79480E090E0A0E0B0E844
:10474000E82AF92A0A2B1B2B7695679557954795EA
:104750002F5F3F4F77FDE7CF0CC0440F551F661FFB
:10476000771F17FD4160EE0CFF1C001F111F215029
:104770003040403090E0590790E0690790E47907B5
:1047800060F32B8F3C8FDB01CA018F779070A07094
:10479000B07080349105A105B10561F447FD0AC0F0
:1047A000E114F1040105110529F0405C5F4F6F4FE2
:1047B0007F4F40781A8EFE1711F081E08A8F4D8F5F
:1047C0005E8F6F8F78A383E0898FCE0149960E9418
:1047D0002227A096E2E10C94E428A8E1B0E0E3EF00
:1047E000F3E20C94D02869837A838B839C832D8396
:1047F0003E834F835887B9E0EB2EF12CEC0EFD1E63
:10480000CE010196B7010E94F7278E010F5E1F4F60
:10481000CE010596B8010E94F7272985223008F4B9
:104820007EC03989323010F4B8017CC08A859A89FB
:1048300089278A87243011F0223031F4231709F0B8
:104840006EC06BEF73E06EC0343039F41D861E8687
:104850001F86188A1C861B8604C0323021F484E02F
:104860008987B7015FC02B853C858B899C89281B74
:10487000390B3C872B87ED84FE840F851889AD8822
:10488000BE88CF88D88CEA14FB040C051D0540F4C3
:10489000EE0CFF1C001F111F215030403C872B875E
:1048A00020E030E040E050E080E090E0A0E0B0E4C4
:1048B00060E070E0EA14FB040C051D0540F0282BB5
:1048C000392B4A2B5B2BEA18FB080C091D09B695FE
:1048D000A79597958795EE0CFF1C001F111F6F5F22
:1048E0007F4F6F31710531F7DA01C9018F77907011
:1048F000A070B07080349105A105B10561F427FD69
:104900000AC0E114F1040105110529F0205C3F4FB4
:104910004F4F5F4F20782D873E874F87588BBE01C2
:10492000675F7F4FCB010E9422276896EAE00C94D4
:10493000EC28A8E1B0E0EFE9F4E20C94D428698314
:104940007A838B839C832D833E834F83588789E0B2
:10495000E82EF12CEC0EFD1ECE010196B7010E944F
:10496000F7278E010F5E1F4FCE010596B8010E94FA
:10497000F7278985823040F08989823028F0C70185
:10498000B8010E946F2801C08FEF6896E6E00C9492
:10499000F028A8E1B0E0EFECF4E20C94D4286983AD
:1049A0007A838B839C832D833E834F83588789E052
:1049B000E82EF12CEC0EFD1ECE010196B7010E94EF
:1049C000F7278E010F5E1F4FCE010596B8010E949A
:1049D000F7278985823040F08989823028F0C70125
:1049E000B8010E946F2801C08FEF6896E6E00C9432
:1049F000F028A8E1B0E0EFEFF4E20C94D42869834A
:104A00007A838B839C832D833E834F83588789E0F1
:104A1000E82EF12CEC0EFD1ECE010196B7010E948E
:104A2000F7278E010F5E1F4FCE010596B8010E9439
:104A3000F7278985823040F08989823028F0C701C4
:104A4000B8010E946F2801C081E06896E6E00C94EE
:104A5000F028A8E0B0E0EFE2F5E20C94D1289B0149
:104A6000AC0183E08983DA01C9018827B7FD83950A
:104A70009927AA27BB27B82E2115310541055105D5
:104A800019F482E089833AC08823A9F0203080E0BD
:104A9000380780E0480780E8580729F460E070E0B4
:104AA00080E09FEC30C0EE24FF248701E21AF30A75
:104AB000040B150B02C079018A018EE1C82ED12C9E
:104AC000DC82CB82ED82FE820F831887C801B7019A
:104AD0000E94D32601971816190684F4082E04C0E4
:104AE000EE0CFF1C001F111F0A94D2F7ED82FE820C
:104AF0000F831887C81AD90ADC82CB82BA82CE010A
:104B000001960E9422272896E9E00C94ED28ACE05B
:104B1000B0E0EDE8F5E20C94D82869837A838B83C2
:104B20009C83CE010196BE016B5F7F4F0E94F727E9
:104B30008D81823061F1823050F1843021F48E8198
:104B4000882351F12EC02F81388537FD20C06E811A
:104B50002F3131051CF06623F9F023C08EE190E07F
:104B6000821B930B29853A854B855C8504C056953D
:104B70004795379527958A95D2F76623B1F05095DA
:104B80004095309521953F4F4F4F5F4F0EC020E02D
:104B900030E040E050E009C02FEF3FEF4FEF5FE71C
:104BA00004C020E030E040E050E8B901CA012C9692
:104BB000E2E00C94F428A8E0B0E0E1EEF5E20C9419
:104BC000D0287B018C01611571058105910519F4CF
:104BD00082E0898360C083E089838EE1C82ED12C76
:104BE000DC82CB82ED82FE820F831887C801B70179
:104BF0000E94D326FC013197F7FF3BC022273327C1
:104C00002E1B3F0B57016801022E04C0D694C79497
:104C1000B794A7940A94D2F740E050E060E070E0C7
:104C200081E090E0A0E0B0E004C0880F991FAA1FC7
:104C3000BB1F2A95D2F70197A109B1098E219F21A7
:104C4000A023B1230097A105B10521F041E050E078
:104C500060E070E04A295B296C297D294D835E83E1
:104C60006F8378878EE190E08E1B9F0B9C838B83F4
:104C700012C0309781F00E2E04C0EE0CFF1C001FF6
:104C8000111F0A94D2F7ED82FE820F831887CE1A85
:104C9000DF0ADC82CB821A82CE0101960E94222793
:104CA0002896EAE00C94EC28EF92FF920F93DF93A2
:104CB000CF93CDB7DEB760970FB6F894DEBF0FBEC7
:104CC000CDBFA82F002309F461C07E010894E11C28
:104CD000F11C88E0F70111928A95E9F729833A835C
:104CE0004B835C836D837E83AF83988780E2801BD8
:104CF000E82FFF27E7FDF0954D815E816F81788574
:104D0000181684F01D861E861F86188A8827992704
:104D10008E1B9F0B04C076956795579547958A958E
:104D2000D2F728C0202F332727FD3095DB01CA0199
:104D3000022E04C0B695A795979587950A94D2F749
:104D40008D879E87AF87B88B04C0440F551F661FA1
:104D5000771FEA95D2F789819A81AB81BC8104C023
:104D6000B695A795979587952A95D2F7482B592BF5
:104D70006A2B7B2B49875A876B877C8729853A85E5
:104D80004B855C856D857E85AF8598898A2F609679
:104D90000FB6F894DEBF0FBECDBFCF91DF910F915C
:104DA000FF90EF900895EF92FF920F931F937B0176
:104DB0008C0180E0E81680E0F80681E0080780E0DA
:104DC000180788F48FEFE816F1040105110531F09A
:104DD00028F088E090E0A0E0B0E017C080E090E02C
:104DE000A0E0B0E012C080E0E81680E0F80680E0C5
:104DF000080781E0180728F088E190E0A0E0B0E023
:104E000004C080E190E0A0E0B0E020E230E040E0CB
:104E100050E0281B390B4A0B5B0B04C01695079515
:104E2000F794E7948A95D2F7F701ED5FFB4F808105
:104E3000281B310941095109C9011F910F91FF90A8
:104E4000EF900895DF92EF92FF920F931F93FC0172
:104E5000E480F58006811781D1808081823048F41A
:104E600080E090E0A0E1B0E0E82AF92A0A2B1B2BB1
:104E7000A5C0843009F49FC0823021F4EE24FF24C1
:104E8000870105C0E114F1040105110519F4E0E002
:104E9000F0E096C0628173819FEF623879070CF071
:104EA0005BC022E83FEF261B370B2A3131052CF07F
:104EB00020E030E040E050E02AC0B801A701022E17
:104EC00004C076956795579547950A94D2F781E087
:104ED00090E0A0E0B0E004C0880F991FAA1FBB1F9C
:104EE0002A95D2F70197A109B1098E219F21A0230C
:104EF000B1230097A105B10521F081E090E0A0E089
:104F0000B0E09A01AB01282B392B4A2B5B2BDA013D
:104F1000C9018F779070A070B07080349105A105A1
:104F2000B10539F427FF09C0205C3F4F4F4F5F4F59
:104F300004C0215C3F4F4F4F5F4FE0E0F0E0203076
:104F4000A0E03A07A0E04A07A0E45A0710F0E1E029
:104F5000F0E079018A0127C06038710564F5FB0132
:104F6000E158FF4FD801C7018F779070A070B070E3
:104F700080349105A105B10539F4E7FE0DC080E448
:104F800090E0A0E0B0E004C08FE390E0A0E0B0E0EB
:104F9000E80EF91E0A1F1B1F17FF05C0169507957F
:104FA000F794E794319687E016950795F794E79480
:104FB0008A95D1F705C0EE24FF248701EFEFF0E0DA
:104FC0006E2F679566276795902F9F77D794DD247E
:104FD000D7948E2F8695492F462B582F5D29B701E0
:104FE000CA011F910F91FF90EF90DF900895FC018F
:104FF000DB01408151812281622F6F7770E0221F97
:105000002227221F9381892F880F822B282F30E09F
:10501000991F9927991F11969C9311972115310576
:10502000A9F5411551056105710511F482E037C0FC
:1050300082E89FEF13969C938E9312979A01AB018F
:1050400067E0220F331F441F551F6A95D1F783E095
:105050008C930DC0220F331F441F551F12968D9144
:105060009C911397019713969C938E9312972030DF
:1050700080E0380780E0480780E4580758F314962A
:105080002D933D934D935C93179708952F3F3105D2
:1050900079F4411551056105710519F484E08C938B
:1050A000089564FF03C081E08C9312C01C9210C06D
:1050B0002F57304013963C932E93129783E08C9396
:1050C00087E0440F551F661F771F8A95D1F77064DC
:1050D00014964D935D936D937C93179708951F934A
:1050E000DC01FB019C91923008F447C08081823042
:1050F00008F443C0943051F411961C91843099F512
:105100008181682F70E0611B71093FC0843021F0FC
:10511000923031F48230B9F18181882389F12DC038
:1051200011961C9111978230F1F081811817D9F4F2
:1051300012962D913C911397828193818217930748
:1051400094F028173907BCF014968D919D910D901D
:10515000BC91A02D248135814681578128173907BC
:105160004A075B0718F4112341F00AC0821793071E
:10517000A407B50740F4112319F061E070E005C001
:105180006FEF7FEF02C060E070E0CB011F910895E8
:105190002F923F924F925F926F927F928F929F9247
:1051A000AF92BF92CF92DF92EF92FF920F931F9335
:1051B000CF93DF93CDB7DEB7CA1BDB0B0FB6F894E6
:1051C000DEBF0FBECDBF09942A88398848885F8426
:1051D0006E847D848C849B84AA84B984C884DF8097
:1051E000EE80FD800C811B81AA81B981CE0FD11D7B
:1051F0000FB6F894DEBF0FBECDBFED010895F89451
:02520000FFCFDE
:10520200000000000000204100000000000090416A
:105212000000C04000009041000040410000904169
:1052220067636876002323235374617274696E671F
:105232002041565220496E204465627567204D6FA9
:1052420064650A005F72647900636F6D3A00303101
:10525200323334353637383941424344454600000B
:10526200000000009041000040400000904100001A
:10527200C040000090410000104100009041000039
:1052820040410000904100007041000090414E7585
:105292006D20627974657320617420737461727415
:1052A2003A200023234A756E6B696E67206261643F
:1052B2002066697273742062797465200043757286
:1052C20072656E74206E756D2062797465733A2012
:1052D2000023232342616420666972737420627919
:1052E2007465002323234261642063726320636830
:1052F20065636B00204A756E6B20646174613A20AD
:1053020000476F74206865616465720023234661FB
:10531200696C656420746F20616C6C69676E2061D2
:105322007061636B657400232A232A5761726E6968
:105332006E672C207061636B657420686173206EE8
:105342006F20525043002A2A466F756E64207061A6
:10535200636B65742C20002042797465732C207075
:10536200756C6C696E67206F7574206F662062754C
:105372006666657200486561646572207265616483
:10538200792C206275742064617461206973206EC7
:105392006F74207965742E204E6565643A20002072
:1053A200686176653A2000476F743A0052657370FF
:1053B2006F6E73653A002323234261642050616358
:1053C2006B657421210000000000000074F72601C3
:1053D20001016263732E636F72652E2A3B302E3396
:1053E2003B3B00402340234649464F204641494C1F
:1053F200454420544F20494E495449414C495A454D
:10540200002C00496E697469616C697A696E672063
:105412004649464F2C204275666665722053697A6A
:10542200653A200003034023234552524F5220661F
:1054320069666F206973206F766572666C6F776E2E
:10544200212053697A652C206275666665723A205E
:10545200002603416464696E672061206E616D6598
:1054620073706163653A2000436865636B696E67B8
:1054720020525043206C697374002C20466F756E65
:1054820064206D61746368696E6720525043002C1A
:10549200204E6F206D61746368657320666F756E50
:1054A20064004E6F20525043276320726567657314
:1054B2007465726564005573696E672063616C6C14
:1054C2006261636B005F706E670048617665200001
:1054D200206E616D65737061636573000A53656E5A
:1054E20064696E673A20004661696C65642067658D
:1054F200742063616C6C6261636B000000000000E9
:105502000000000001020203030303040404040474
:10551200040404050505050505050505050505053C
:10552200050505060606060606060606060606061C
:105532000606060606060606060606060606060609
:1055420006060607070707070707070707070707EC
:1055520007070707070707070707070707070707D9
:1055620007070707070707070707070707070707C9
:1055720007070707070707070707070707070707B9
:10558200070707080808080808080808080808089C
:105592000808080808080808080808080808080889
:1055A2000808080808080808080808080808080879
:1055B2000808080808080808080808080808080869
:1055C2000808080808080808080808080808080859
:1055D2000808080808080808080808080808080849
:1055E2000808080808080808080808080808080839
:1055F2000808080808080808080808080808080829
:04560200080808008C
:00000001FF
